{
  "contractName": "Adoption",
  "abi": [
    {
      "inputs": [],
      "payable": false,
      "stateMutability": "nonpayable",
      "type": "constructor"
    },
    {
      "constant": true,
      "inputs": [
        {
          "internalType": "uint256",
          "name": "",
          "type": "uint256"
        }
      ],
      "name": "adopters",
      "outputs": [
        {
          "internalType": "address",
          "name": "",
          "type": "address"
        }
      ],
      "payable": false,
      "stateMutability": "view",
      "type": "function"
    },
    {
      "constant": true,
      "inputs": [],
      "name": "owner",
      "outputs": [
        {
          "internalType": "address",
          "name": "",
          "type": "address"
        }
      ],
      "payable": false,
      "stateMutability": "view",
      "type": "function"
    },
    {
      "constant": true,
      "inputs": [
        {
          "internalType": "uint256",
          "name": "",
          "type": "uint256"
        }
      ],
      "name": "petLikes",
      "outputs": [
        {
          "internalType": "uint256",
          "name": "",
          "type": "uint256"
        }
      ],
      "payable": false,
      "stateMutability": "view",
      "type": "function"
    },
    {
      "constant": true,
      "inputs": [
        {
          "internalType": "uint256",
          "name": "",
          "type": "uint256"
        }
      ],
      "name": "registeredPets",
      "outputs": [
        {
          "internalType": "string",
          "name": "name",
          "type": "string"
        },
        {
          "internalType": "string",
          "name": "breed",
          "type": "string"
        },
        {
          "internalType": "uint256",
          "name": "age",
          "type": "uint256"
        },
        {
          "internalType": "string",
          "name": "location",
          "type": "string"
        },
        {
          "internalType": "string",
          "name": "pictureUrl",
          "type": "string"
        },
        {
          "internalType": "address",
          "name": "owner",
          "type": "address"
        },
        {
          "internalType": "bool",
          "name": "isAdopted",
          "type": "bool"
        }
      ],
      "payable": false,
      "stateMutability": "view",
      "type": "function"
    },
    {
      "constant": true,
      "inputs": [],
      "name": "totalDonations",
      "outputs": [
        {
          "internalType": "uint256",
          "name": "",
          "type": "uint256"
        }
      ],
      "payable": false,
      "stateMutability": "view",
      "type": "function"
    },
    {
      "constant": true,
      "inputs": [
        {
          "internalType": "address",
          "name": "",
          "type": "address"
        },
        {
          "internalType": "uint256",
          "name": "",
          "type": "uint256"
        }
      ],
      "name": "userLiked",
      "outputs": [
        {
          "internalType": "bool",
          "name": "",
          "type": "bool"
        }
      ],
      "payable": false,
      "stateMutability": "view",
      "type": "function"
    },
    {
      "constant": false,
      "inputs": [],
      "name": "donate",
      "outputs": [],
      "payable": true,
      "stateMutability": "payable",
      "type": "function"
    },
    {
      "constant": false,
      "inputs": [],
      "name": "withdraw",
      "outputs": [],
      "payable": false,
      "stateMutability": "nonpayable",
      "type": "function"
    },
    {
      "constant": false,
      "inputs": [
        {
          "internalType": "uint256",
          "name": "petId",
          "type": "uint256"
        }
      ],
      "name": "adopt",
      "outputs": [
        {
          "internalType": "uint256",
          "name": "",
          "type": "uint256"
        }
      ],
      "payable": false,
      "stateMutability": "nonpayable",
      "type": "function"
    },
    {
      "constant": false,
      "inputs": [
        {
          "internalType": "string",
          "name": "_name",
          "type": "string"
        },
        {
          "internalType": "string",
          "name": "_breed",
          "type": "string"
        },
        {
          "internalType": "uint256",
          "name": "_age",
          "type": "uint256"
        },
        {
          "internalType": "string",
          "name": "_location",
          "type": "string"
        },
        {
          "internalType": "string",
          "name": "_pictureUrl",
          "type": "string"
        }
      ],
      "name": "registerPet",
      "outputs": [
        {
          "internalType": "uint256",
          "name": "",
          "type": "uint256"
        }
      ],
      "payable": true,
      "stateMutability": "payable",
      "type": "function"
    },
    {
      "constant": false,
      "inputs": [
        {
          "internalType": "uint256",
          "name": "petIndex",
          "type": "uint256"
        }
      ],
      "name": "adoptRegisteredPet",
      "outputs": [
        {
          "internalType": "uint256",
          "name": "",
          "type": "uint256"
        }
      ],
      "payable": false,
      "stateMutability": "nonpayable",
      "type": "function"
    },
    {
      "constant": true,
      "inputs": [],
      "name": "getRegisteredPetsCount",
      "outputs": [
        {
          "internalType": "uint256",
          "name": "",
          "type": "uint256"
        }
      ],
      "payable": false,
      "stateMutability": "view",
      "type": "function"
    },
    {
      "constant": true,
      "inputs": [],
      "name": "getAdopters",
      "outputs": [
        {
          "internalType": "address[16]",
          "name": "",
          "type": "address[16]"
        }
      ],
      "payable": false,
      "stateMutability": "view",
      "type": "function"
    },
    {
      "constant": false,
      "inputs": [
        {
          "internalType": "uint256",
          "name": "petId",
          "type": "uint256"
        }
      ],
      "name": "toggleLike",
      "outputs": [],
      "payable": false,
      "stateMutability": "nonpayable",
      "type": "function"
    },
    {
      "constant": true,
      "inputs": [],
      "name": "getMyLikedPets",
      "outputs": [
        {
          "internalType": "uint256[]",
          "name": "",
          "type": "uint256[]"
        }
      ],
      "payable": false,
      "stateMutability": "view",
      "type": "function"
    }
  ],
  "bytecode": "0x608060405234801561001057600080fd5b50600080546001600160a01b0319163317905561115d806100326000396000f3fe6080604052600436106100e85760003560e01c806354398d181161008a578063a44130b111610059578063a44130b1146104f9578063b0b05f4f14610523578063de2ed8931461075e578063ed88c68e14610773576100e8565b806354398d181461042b578063739cea7a146104555780638588b2c5146104ba5780638da5cb5b146104e4576100e8565b80633ccfd60b116100c65780633ccfd60b146103335780633de4eb171461034a57806343ae80d3146103985780634620c53d146103de576100e8565b806310269800146100ed578063135830fc146101145780632cfaa3b814610309575b600080fd5b3480156100f957600080fd5b5061010261077b565b60408051918252519081900360200190f35b34801561012057600080fd5b5061013e6004803603602081101561013757600080fd5b5035610782565b604080519081018690526001600160a01b03831660a082015281151560c082015260e080825288519082015287518190602080830191606084019160808501916101008601918e019080838360005b838110156101a557818101518382015260200161018d565b50505050905090810190601f1680156101d25780820380516001836020036101000a031916815260200191505b5085810384528b5181528b516020918201918d019080838360005b838110156102055781810151838201526020016101ed565b50505050905090810190601f1680156102325780820380516001836020036101000a031916815260200191505b5085810383528951815289516020918201918b019080838360005b8381101561026557818101518382015260200161024d565b50505050905090810190601f1680156102925780820380516001836020036101000a031916815260200191505b5085810382528851815288516020918201918a019080838360005b838110156102c55781810151838201526020016102ad565b50505050905090810190601f1680156102f25780820380516001836020036101000a031916815260200191505b509b50505050505050505050505060405180910390f35b34801561031557600080fd5b506101026004803603602081101561032c57600080fd5b5035610a14565b34801561033f57600080fd5b50610348610a26565b005b34801561035657600080fd5b5061035f610ac6565b604051808261020080838360005b8381101561038557818101518382015260200161036d565b5050505090500191505060405180910390f35b3480156103a457600080fd5b506103c2600480360360208110156103bb57600080fd5b5035610b0c565b604080516001600160a01b039092168252519081900360200190f35b3480156103ea57600080fd5b506104176004803603604081101561040157600080fd5b506001600160a01b038135169060200135610b29565b604080519115158252519081900360200190f35b34801561043757600080fd5b506103486004803603602081101561044e57600080fd5b5035610b49565b34801561046157600080fd5b5061046a610c27565b60408051602080825283518183015283519192839290830191858101910280838360005b838110156104a657818101518382015260200161048e565b505050509050019250505060405180910390f35b3480156104c657600080fd5b50610102600480360360208110156104dd57600080fd5b5035610cfe565b3480156104f057600080fd5b506103c2610d3f565b34801561050557600080fd5b506101026004803603602081101561051c57600080fd5b5035610d4e565b610102600480360360a081101561053957600080fd5b810190602081018135600160201b81111561055357600080fd5b82018360208201111561056557600080fd5b803590602001918460018302840111600160201b8311171561058657600080fd5b91908080601f0160208091040260200160405190810160405280939291908181526020018383808284376000920191909152509295949360208101935035915050600160201b8111156105d857600080fd5b8201836020820111156105ea57600080fd5b803590602001918460018302840111600160201b8311171561060b57600080fd5b91908080601f01602080910402602001604051908101604052809392919081815260200183838082843760009201919091525092958435959094909350604081019250602001359050600160201b81111561066557600080fd5b82018360208201111561067757600080fd5b803590602001918460018302840111600160201b8311171561069857600080fd5b91908080601f0160208091040260200160405190810160405280939291908181526020018383808284376000920191909152509295949360208101935035915050600160201b8111156106ea57600080fd5b8201836020820111156106fc57600080fd5b803590602001918460018302840111600160201b8311171561071d57600080fd5b91908080601f016020809104026020016040519081016040528093929190818152602001838380828437600092019190915250929550610e64945050505050565b34801561076a57600080fd5b50610102610fe3565b610348610fe9565b6012545b90565b6012818154811061078f57fe5b60009182526020918290206006919091020180546040805160026001841615610100026000190190931692909204601f8101859004850283018501909152808252919350918391908301828280156108285780601f106107fd57610100808354040283529160200191610828565b820191906000526020600020905b81548152906001019060200180831161080b57829003601f168201915b505050505090806001018054600181600116156101000203166002900480601f0160208091040260200160405190810160405280929190818152602001828054600181600116156101000203166002900480156108c65780601f1061089b576101008083540402835291602001916108c6565b820191906000526020600020905b8154815290600101906020018083116108a957829003601f168201915b505050506002838101546003850180546040805160206001841615610100026000190190931695909504601f81018390048302860183019091528085529596929592945090919083018282801561095e5780601f106109335761010080835404028352916020019161095e565b820191906000526020600020905b81548152906001019060200180831161094157829003601f168201915b5050505060048301805460408051602060026001851615610100026000190190941693909304601f81018490048402820184019092528181529495949350908301828280156109ee5780601f106109c3576101008083540402835291602001916109ee565b820191906000526020600020905b8154815290600101906020018083116109d157829003601f168201915b505050600590930154919250506001600160a01b0381169060ff600160a01b9091041687565b60136020526000908152604090205481565b6000546001600160a01b03163314610a85576040805162461bcd60e51b815260206004820152601860248201527f4f6e6c79206f776e65722063616e2077697468647261772e0000000000000000604482015290519081900360640190fd5b600080546040516001600160a01b039091169182914780156108fc0292909190818181858888f19350505050158015610ac2573d6000803e3d6000fd5b5050565b610ace611048565b604080516102008101918290529060029060109082845b81546001600160a01b03168152600190910190602001808311610ae5575050505050905090565b60028160108110610b1957fe5b01546001600160a01b0316905081565b601460209081526000928352604080842090915290825290205460ff1681565b601254601001808210610b93576040805162461bcd60e51b815260206004820152600d60248201526c125b9d985b1a59081c195d1259609a1b604482015290519081900360640190fd5b33600090815260146020908152604080832085845290915290205460ff1615610bec573360009081526014602090815260408083208584528252808320805460ff19169055601390915290208054600019019055610ac2565b3360009081526014602090815260408083208584528252808320805460ff191660019081179091556013909252909120805490910190555050565b6012546060906010016000805b82811015610c6e5733600090815260146020908152604080832084845290915290205460ff1615610c66576001909101905b600101610c34565b50606081604051908082528060200260200182016040528015610c9b578160200160208202803883390190505b5090506000805b84811015610cf45733600090815260146020908152604080832084845290915290205460ff1615610cec5780838381518110610cda57fe5b60209081029190910101526001909101905b600101610ca2565b5090935050505090565b6000600f821115610d0e57600080fd5b3360028360108110610d1c57fe5b0180546001600160a01b0319166001600160a01b03929092169190911790555090565b6000546001600160a01b031681565b6012546000908210610da7576040805162461bcd60e51b815260206004820152601d60248201527f496e76616c696420726567697374657265642070657420696e6465782e000000604482015290519081900360640190fd5b60128281548110610db457fe5b6000918252602090912060069091020160050154600160a01b900460ff1615610e24576040805162461bcd60e51b815260206004820152601760248201527f50657420697320616c72656164792061646f707465642e000000000000000000604482015290519081900360640190fd5b600160128381548110610e3357fe5b600091825260209091206005600690920201018054911515600160a01b0260ff60a01b199092169190911790555090565b6000662386f26fc10000341015610eac5760405162461bcd60e51b81526004018080602001828103825260298152602001806111006029913960400191505060405180910390fd5b6040805160e081018252878152602080820188905291810186905260608101859052608081018490523360a0820152600060c0820181905260128054600181018083559190925282518051919460069093027fbb8a6a4669ba250d26cd7a459eca9d215f8307e33aebe50379bc5a3617ec34440192610f3092849290910190611067565b506020828101518051610f499260018501920190611067565b506040820151600282015560608201518051610f6f916003840191602090910190611067565b5060808201518051610f8b916004840191602090910190611067565b5060a08201516005909101805460c0909301511515600160a01b0260ff60a01b196001600160a01b039093166001600160a01b0319909416939093179190911691909117905550506012546000190195945050505050565b60015481565b6000341161103e576040805162461bcd60e51b815260206004820152601860248201527f4d7573742073656e642045544820746f20646f6e6174652e0000000000000000604482015290519081900360640190fd5b6001805434019055565b6040518061020001604052806010906020820280388339509192915050565b828054600181600116156101000203166002900490600052602060002090601f016020900481019282601f106110a857805160ff19168380011785556110d5565b828001600101855582156110d5579182015b828111156110d55782518255916020019190600101906110ba565b506110e19291506110e5565b5090565b61077f91905b808211156110e157600081556001016110eb56fe526567697374726174696f6e20666565206f6620302e3031204554482069732072657175697265642ea265627a7a723158202bd3d2c522f01d4236ed9aa4a1893a95816906714076366738bfa79b425582fd64736f6c63430005110032",
  "source": "pragma solidity ^0.5.0;\r\n\r\ncontract Adoption {\r\n  address public owner;\r\n\r\n  // record total donations\r\n  uint public totalDonations;\r\n\r\n  constructor() public {\r\n      owner = msg.sender;   // deployer becomes owner\r\n  }\r\n\r\n  address[16] public adopters;\r\n\r\n// update struct\r\n  struct RegisteredPet {\r\n    string name;\r\n    string breed;     \r\n    uint age;         \r\n    string location;  \r\n    string pictureUrl; \r\n    address owner;\r\n    bool isAdopted;\r\n  }\r\n\r\n  RegisteredPet[] public registeredPets;\r\n\r\n  // Anyone can donate ETH to the petshop\r\n  function donate() public payable {\r\n      require(msg.value > 0, \"Must send ETH to donate.\");\r\n      totalDonations += msg.value;\r\n  }\r\n\r\n  // Owner can withdraw all donations\r\n  function withdraw() public {\r\n      require(msg.sender == owner, \"Only owner can withdraw.\");\r\n      address payable recipient = address(uint160(owner));\r\n      recipient.transfer(address(this).balance);\r\n  }\r\n\r\n  // ============ LIKE SYSTEM ============\r\n\r\n  // petId => total likes\r\n  mapping(uint => uint) public petLikes;\r\n\r\n  // user => (petId => liked?)\r\n  mapping(address => mapping(uint => bool)) public userLiked;\r\n\r\n  // Adopting a pet\r\n  function adopt(uint petId) public returns (uint) {\r\n    require(petId >= 0 && petId <= 15);\r\n    adopters[petId] = msg.sender;\r\n    return petId;\r\n  }\r\n\r\n  // update arguments\r\n  function registerPet(\r\n    string memory _name,\r\n    string memory _breed,\r\n    uint _age,\r\n    string memory _location,\r\n    string memory _pictureUrl\r\n  ) public payable returns (uint) {\r\n    require(msg.value >= 10000000000000000, \"Registration fee of 0.01 ETH is required.\");\r\n\r\n    // create new pets to register\r\n    registeredPets.push(\r\n      RegisteredPet({\r\n        name: _name,\r\n        breed: _breed,\r\n        age: _age,\r\n        location: _location,\r\n        pictureUrl: _pictureUrl,\r\n        owner: msg.sender,\r\n        isAdopted: false\r\n      })\r\n    );\r\n\r\n    return registeredPets.length - 1;\r\n  }\r\n\r\n  function adoptRegisteredPet(uint petIndex) public returns (uint) {\r\n\r\n    require(petIndex < registeredPets.length, \"Invalid registered pet index.\");\r\n    \r\n    require(registeredPets[petIndex].isAdopted == false, \"Pet is already adopted.\");\r\n\r\n    registeredPets[petIndex].isAdopted = true;\r\n    \r\n    return petIndex;\r\n  }\r\n\r\n  //get number of registered pets\r\n  function getRegisteredPetsCount() public view returns (uint) {\r\n    return registeredPets.length;\r\n  }\r\n\r\n  // Retrieving the adopters\r\n  function getAdopters() public view returns (address[16] memory) {\r\n    return adopters;\r\n  }\r\n\r\n  function toggleLike(uint petId) public {\r\n    uint totalPets = 16 + registeredPets.length; \r\n\r\n    require(petId < totalPets, \"Invalid petId\");\r\n\r\n    // If already liked → unlike\r\n    if (userLiked[msg.sender][petId]) {\r\n        userLiked[msg.sender][petId] = false;\r\n        petLikes[petId] -= 1;\r\n    }\r\n    // If not liked → like\r\n    else {\r\n        userLiked[msg.sender][petId] = true;\r\n        petLikes[petId] += 1;\r\n    }\r\n  }\r\n\r\n  function getMyLikedPets() public view returns (uint[] memory) {\r\n    uint totalPets = 16 + registeredPets.length;   // FIX\r\n\r\n    uint count = 0;\r\n\r\n    // Count how many pets I have liked\r\n    for (uint i = 0; i < totalPets; i++) {\r\n        if (userLiked[msg.sender][i]) {\r\n            count++;\r\n        }\r\n    }\r\n\r\n    // Create array\r\n    uint[] memory liked = new uint[](count);\r\n    uint index = 0;\r\n\r\n    for (uint i = 0; i < totalPets; i++) {\r\n        if (userLiked[msg.sender][i]) {\r\n            liked[index] = i;\r\n            index++;\r\n        }\r\n    }\r\n\r\n    return liked;\r\n  }\r\n\r\n}\r\n\r\n\r\n",
  "sourcePath": "E:/aps1050/APS1050_final_project/contracts/Adoption.sol",
  "compiler": {
    "name": "solc",
    "version": "0.5.17+commit.d19bba13.Emscripten.clang"
  },
  "schemaVersion": "3.0.22",
  "updatedAt": "2025-11-25T14:49:48.509Z",
  "networkType": "ethereum",
  "devdoc": {
    "methods": {}
  },
  "userdoc": {
    "methods": {}
  }
}